:020000040800F2
:100000007864002045010008E9310008671E0008F7
:1000100007310008851000080551000800000000A5
:100020000000000000000000000000001D3D00086E
:100030000D16000800000000ED3600081D41000804
:100040005F0100085F0100085F0100085F01000810
:100050005F0100085F0100085F0100085F01000800
:100060005F0100085F0100085F0100085F010008F0
:100070005F0100085F0100085F0100085F010008E0
:100080005F0100085F0100085F0100085F010008D0
:100090005F0100085F0100085F0100085F010008C0
:1000A0005F0100085F0100085F0100085F010008B0
:1000B0005F0100085F0100080D4500085F010008AE
:1000C0005F0100085F0100085F0100085F01000890
:1000D0005F010008794B00085F010008F14B000840
:1000E0005F0100085F0100085F0100085F01000870
:1000F0005F0100085F0100085F0100085F01000860
:100100005F0100085F0100085F0100085F0100084F
:100110005F0100085F0100085F0100085F0100083F
:100120005F0100085F0100085F0100085F0100082F
:10013000DFF80CD000F072FE004800477163000841
:10014000786400200648804706480047FEE7FEE73F
:10015000FEE7FEE7FEE7FEE7FEE7FEE7FEE7FEE777
:100160005141000831010008A0F14101192900D8CE
:100170002030704740EA01039B0703D009E008C91B
:10018000121F08C0042AFAD203E011F8013B00F85C
:10019000013B521EF9D27047D2B201E000F8012BA8
:1001A000491EFBD270470022F6E710B513460A46F7
:1001B00004461946FFF7F0FF204610BD421E12F814
:1001C000013F002BFBD111F8013B02F8013B002B52
:1001D000F9D1704730B505462A460B4612F8010B97
:1001E00013F8014B08B1A042F8D01CB1002802D08E
:1001F0006D1CF1E7284630BDCAB2401E10F8011F41
:100200008A4202D00029F9D100207047421C10F820
:10021000011B0029FBD1801A704710B5002200E0B5
:10022000521C835C8C5CA34201D1002BF8D1D8B264
:10023000E1B2401A10BD10B5044600E0401C03783E
:10024000002BFBD100E0401C521E04D311F8013BEF
:100250000370002BF7D100210170204610BD30B58E
:1002600005460020034600E05B1C934205D2EC5C8F
:10027000C85C201A01D1002CF6D130BD2DE9FF4F0A
:10028000087883B09946FF2805D0491C2D2804D052
:100290000024002008E000200BE00124F9E700EB37
:1002A000800003EB4000491C0B78FF2BF7D104B111
:1002B000404200230293147819461D462D2C01D08C
:1002C0002B2C04D1521C2D2C13D000240294AA46AE
:1002D0001478FF2C0FD00A25A3FB057801FB0581BC
:1002E0004FF0000C03FB0C11521CE3194AEB010107
:1002F000EEE70124EAE7814453EA010002D019F550
:10030000C87F06DA03980021C0E9001107B0BDE8F4
:10031000F08F0025AE4E2F46DFF8B882184600F069
:100320003CFDCDE90001B9F1000002DAC9F1000499
:1003300000E004460023A74A1AEB030B42EB045AE1
:1003400012E0E00707D02A4633463846414600F01F
:100350005CFA074688462A4633461046194600F09E
:1003600054FA05460E466410002CEAD1DDE900017E
:10037000B9F1000F5A46534606DA00F09FFC3A46A0
:10038000434600F09BFC05E000F03FFA3A46434646
:1003900000F03BFA029A0AB181F00041039AC2E9E7
:1003A0000001B3E72DE9FF4F1F468DB0D7E90146A5
:1003B0004FF0FF382E2045464FF000090B90B969E9
:1003C0006D1C0E988847396A824688470028F6D106
:1003D000BAF1FF3F0AD024F4D064002E11DDBAF147
:1003E0002B0F08D0BAF12D0F0BD102E0404611B00F
:1003F0008DE744F48064B9696D1C0E988847824685
:10040000761E6946600501D52D2000E02B208DF871
:10041000000001F1010B0DF1200809E0B9696D1C24
:100420000E98884782460F9844F40074761E056043
:10043000002E02DDBAF1300FF0D00B998A453ED183
:1004400044F0800406E00F99681CA9F1010944F406
:1004500000740860B9696D1C761E0E988847824644
:100460003028F0D02BE00B998A4505D1200603D423
:1004700044F08004761E18E0504605F0B3F808B347
:100480000DF11301761E44F400748B4508D2AAF1D5
:1004900030000BF8010B200607D5A9F1010003E09D
:1004A000200602D409F101008146A00502D50F996A
:1004B000681C0860B9696D1C0E9888478246002E3A
:1004C000D1DC53E0002E51DDBAF1650F02D0BAF154
:1004D000450F4BD1A00549D5B9696D1C24F4407472
:1004E000761E0E9888478246002E0CDD2B2804D0FD
:1004F000BAF12D0F07D144F48074B9696D1C0E98C0
:1005000088478246761EE00501D52D2100E02B218B
:1005100008F8011BCDF82C8021E00DF12901761E91
:1005200044F4007488450CD2AAF1300010F0FF00AA
:1005300088F8000002D10B99884509D908F1010813
:1005400006E0E00501D5244801E042F20F70814643
:10055000B9696D1C0E98884782460F980560002E79
:1005600004DD504605F03EF80028D6D1F9690E9812
:100570008847FF208BF8000088F8000000200690D4
:1005800007904B466A4608A906A8FFF777FEA00524
:1005900002D46FF001002AE714F0240F0AD0E0071C
:1005A00014D1DDE906123868031D3B600068C0E91C
:1005B00000120BE0DDE9060100F013FC0146E00744
:1005C00004D13868021D3A600068016028460EE7D1
:1005D000000014400000F03FF1D8FFFF80EA010264
:1005E00010B502F00043400022D04A001FD0010E97
:1005F00001EB1261C0F35600C2F3560240F4000052
:1006000042F40002A0FB022000047F39140400D051
:10061000401C50EA124001D44000491EC2B20C06F0
:1006200004EBD010401C4008802A02D003E00020D8
:1006300010BD20F00100002900DA0020184310BD91
:1006400030B480EA010202F0004530F0004221F0AF
:10065000004013D090B1C30DD40DC2F31601C0F306
:100660001600E41A41F4000140F400027D34914286
:1006700001D3641C00E04900002C02DA30BC0020E9
:1006800070474FF400000023914201D3891A0343BD
:1006900040084FEA4101F7D151B1914202D14FF0E8
:1006A000004105E002D24FF0010101E06FF00101CD
:1006B00003EBC450284430BC00F06CBA2DE9FE4F67
:1006C000804681EA0300C00F0C46009021F00041F3
:1006D00023F00045B8EB0200A94105D2404621466F
:1006E00090461C460B46024623F00040104347D07C
:1006F000270DC7F30A00C3F30A510290401A019074
:1007000040286BDAC3F3130040F4801B0098924634
:1007100020B10023D2EB030A63EB0B0B019859467F
:10072000C0F14002504600F096F906460D4650468C
:100730005946019A00F0AEF910EB0800614100241F
:1007400087EA115284EAE7731A4340D0009A62B3F1
:10075000019A012A4FEA075215DC001B61EB0201E6
:100760004FF0004202EA0752CDE90042001C41F579
:10077000801132462B4600F053FA03B0BDE8F08FEB
:1007800040462146F9E7001B61EB0201001C41F5E0
:10079000801300185B412018A2F5001747EB0301F6
:1007A00040EAD570B6196D4111E06D084FEA360682
:1007B00045EAC0754FEA0752001B61EB0201001CBD
:1007C00041F5801149084FEA300000195141324685
:1007D0002B4603B0BDE8F04F00F013BA0098012299
:1007E00040000023D0EB020263EBE0730098214647
:1007F0004FEAE074B8EB000061EB0401E9E783F035
:1008000000435BE781F0004158E72DE9FE4F81EAA4
:10081000030404F0004421F0004100944FF0000B69
:1008200023F0004350EA01045ED052EA03045BD097
:10083000C3F30A54C1F30A552C44A4F2F3340194CF
:10084000A0FB0254C1F3130141F48011C3F313035D
:1008500043F4801301FB024400FB034E840A970A11
:1008600044EA815447EA8357A4FB076802958D0A3E
:1008700005FB07854FEA932C04FB0C542705029DCA
:100880004FEA065847EA1637B5EB08056EEB070C3A
:10089000870E920E47EA811742EA8312A7FB0201F4
:1008A000B6EB0B0164EB00042B0D43EA0C335E182E
:1008B00044EB1C50DA465146E7FB0201C5F3130432
:1008C0004FEA0B3343EA14534FEA0432019C43EAE4
:1008D0000603A4F10C040294009CCDE900B400F0DE
:1008E0009FF903B0BDE8F08F00200146F9E7962399
:1008F0000022114600F057B900F0004220F00040FD
:10090000C10DC0F3160040F400007F2901DA002079
:100910007047962903DCC1F19601C84001E0963981
:100920008840002AF4D04042704770B5C1F30A52A3
:1009300001F000450024C1F3130140F2FF3341F4FC
:1009400080119A4201DA002070BD40F233439A428E
:10095000A2F2334203DC524200F08CF800E09040F7
:100960002C43F1D0404270BD30B5041E71F100043B
:1009700004DB4FF00044404264EB0101141E73F1AC
:10098000000405DB1C464FF00043524263EB0403B6
:100990008B4208BF824230BD30B5041E71F10004A5
:1009A00004DB4FF00044404264EB0101141E73F17C
:1009B000000405DB1C464FF00043524263EB040386
:1009C000994208BF904230BD30B50B460146002029
:1009D0002022012409E021FA02F59D4205D303FA01
:1009E00002F5491B04FA02F52844151EA2F1010282
:1009F000F1DC30BD2DE9F05F0546002092469B46B4
:100A000088460646814640241BE028464146474624
:100A1000224600F02FF853465A46C01A914110D38F
:100A200011461846224600F016F82D1A67EB010809
:100A30004F4622460120002100F00DF817EB000977
:100A40004E41201EA4F10104DFDC484631462A460F
:100A50004346BDE8F09F202A04DB203A00FA02F169
:100A6000002070479140C2F1200320FA03F319439C
:100A700090407047202A04DB203A21FA02F000213E
:100A8000704721FA02F3D040C2F12002914008439E
:100A900019467047202A06DBCB17203A41FA02F0AC
:100AA00043EAE07306E041FA02F3D040C2F12002CB
:100AB0009140084319467047426842B1016811F8F5
:100AC000013B23B1521EC0E90012184670470121B4
:100AD000C160881E704742685AB1C368016843B953
:100AE00083688B4205D0491E521CC0E900120020C9
:100AF00070474FF0FF3070470FB4002300B589B046
:100B00000CA900910B996FF00042CB601E4B06932D
:100B10001E4B07930423CDE901321D4A0892024679
:100B20006B460020FFF73EFC09B05DF814FB70B582
:100B300086B006464FF0FF300091CDE9010100205C
:100B400015460C4604903246694604A8FFF7D4FFC8
:100B500002460498211825B108B1084600E0204655
:100B60002860049800280DD0002A02DD00988842F1
:100B700008D0081B0094CDE901043246694604A858
:100B8000FFF7BAFF06B070BDB90A0008D70A00081F
:100B9000410E00080029A8BF7047401C490008BF4B
:100BA00020F00100704710B4B0FA80FC00FA0CF09D
:100BB00050EA010404BF10BC704749B1CCF12004D5
:100BC00021FA04F411FA0CF118BF01212143084362
:100BD000A3EB0C01CB1D4FEA00614FEA102042BF8E
:100BE000002010BC704700EBC35010440029A4BF84
:100BF00010BC7047401C490008BF20F0010010BC29
:100C0000704710B5141E73F1000408DA401C41F15E
:100C1000000192185B411A4301D120F0010010BD80
:100C20002DE9F04D92469B4611B1B1FA81F202E0F6
:100C3000B0FA80F220329046FFF70DFF04460F46CF
:100C400040EA0A0041EA0B0153465A46084313D0D2
:100C5000114653EA010019D0C8F140025046FFF78F
:100C600009FF05460E46504659464246FFF7F3FE39
:100C7000084305D0012004E020463946BDE8F08D48
:100C80000020054346EAE0762C4337430A98630583
:100C9000E40AA0EB08000022FD0A44EA47540A30A7
:100CA00002D500200146E9E7010510196941DDE997
:100CB000084500196941BDE8F04DA2E72DE9F04D66
:100CC00081EA030404F0004B21F0004514464FF084
:100CD000000A23F0004150EA050220D054EA010244
:100CE0001DD0C5F30A570246C5F31303C1F3130021
:100CF000C1F30A5640F4801543F48013A7EB0608AD
:100D0000101BD64608F2FD3873EB050002D308F13C
:100D1000010801E092185B41B8F1000F03DA0020EE
:100D20000146BDE8F08D00204FF480110646844650
:100D30000EE0171B73EB050705D3121B63EB0503CE
:100D400006434CEA010C49084FEA300092185B4117
:100D500050EA0107EDD152EA030012D082EA040002
:100D600083EA0501084305D0101BAB4106D20122DE
:100D7000002306E000224FF0004302E06FF0010282
:100D800053101AEB06004CEB085110EB0A0041EB34
:100D90000B01BDE8F04DFFF734BF0EB540F2334212
:100DA00002920022CDE900221346FFF739FF03B07B
:100DB00000BDC1F30A52C1F3130140F2FF3341F405
:100DC00080119A4202DA00200146704740F2334314
:100DD0009A42A2F2334202DC5242FFF74BBEFFF7C7
:100DE0003ABE01F0004330B421F0004150EA010264
:100DF00006D00A0DA2F56072C1F31301002A02DCCD
:100E000030BC00207047440F44EAC104C100E01820
:100E100030BC00EBC250FFF7BDBE0000064C074DD2
:100E200006E0E06840F0010394E8070098471034BA
:100E3000AC42F6D3FFF780F94C7900086C790008D2
:100E4000C0B24FF4F05100F001B800007F2801D982
:100E5000002208E0064A02EB5002C007127800D1D7
:100E6000120902F00F020120904008407047000074
:100E7000C678000870B58C1810F8015B15F00703F0
:100E800001D110F8013B2A1106D110F8012B03E023
:100E900010F8016B01F8016B5B1EF9D12B0705D42B
:100EA0000023521E0DD401F8013BFAE710F8013B74
:100EB000CB1A921C03E013F8015B01F8015B521E90
:100EC000F9D5A142D8D3002070BD00001CB56248FE
:100ED000007906284ADA6048007968B95E484379A3
:100EE000427A5EA101A804F041FA01A85E490860B7
:100EF000012000F081F934E05748007901280DD134
:100F000055488379827A55A1684604F02FFA5749EB
:100F1000C1F800D0012000F06FF922E04E480079BE
:100F200002280DD14C48C379C27A4CA101A804F023
:100F30001DFA01A84C490860022000F05DF910E09C
:100F40004548007903280CD14348037A027B43A12A
:100F5000684604F00BFA4549C1F800D0022000F0C1
:100F60004BF93D480079401C3B4908713A480079EB
:100F7000072814D13E480078374948723C484078E9
:100F800048713C48007888723A484078887101205E
:100F900004F088F930480079C01C2F4908712E48A8
:100FA0000079082814D1344800782B49C872324897
:100FB0004078C8713148007808733048407808722A
:100FC000022004F06FF924480079C01C22490871FE
:100FD0002B4800792649097888420FD12848407962
:100FE00023494978884209D125488079012805D1CB
:100FF0001948C07B10B9022017494873204800796E
:101000001C49097888420FD11D484079194949780F
:10101000884209D11A488079012805D10E48C07B41
:1010200010B902200C4988731548007912490978D3
:1010300088420FD1124840790F494978884209D136
:101040000F488079012805D10348C07B10B90220E0
:101050000149C8731CBD0000685400202530327857
:101060002530327800000000000A0020040A002029
:10107000080A00200A0A00200C0A00200E0A00209C
:10108000EC09002000BFFEE710B5012001F044F993
:1010900004463CB14248007820B94248047001201F
:1010A0003F49087064B13E480078012808DB3C489D
:1010B00000781E2804DC3A480078401C3849087043
:1010C000002C42D13648007800283EDD34480078B4
:1010D0001E283ADA33480078012804D0022811D0BB
:1010E00003282CD11DE030A004F030F93148407BBA
:1010F000012803D100202F49487302E001202D4927
:1011000048731DE02CA004F021F92A48807B0128B7
:1011100003D100202749887302E001202549887304
:101120000EE028A004F012F92248C07B18B100207C
:101130002049C87302E001201E49C87300E000BFC7
:1011400000BF00201649087029E044BB144800780D
:101150001E2824DB13480078012804D0022811D06F
:10116000032817D112E01AA004F0F0F81B48807889
:10117000012803D100201949887002E00120174995
:10118000887008E016A004F0E1F804E017A004F06D
:10119000DDF800E000BF00BF00200149087010BD6D
:1011A000690A00206A0A00204B6579315F53686F35
:1011B00072740A00685400204B6579325F53686F7F
:1011C00072740A004B6579335F53686F72740A005A
:1011D0004B6579315F4C6F6E670A00004C540020FC
:1011E0004B6579325F4C6F6E670A00004B6579334F
:1011F0005F4C6F6E670A00001FB504460020029026
:10120000012C04D0022C19D0032C45D12DE003AAC7
:1012100001A92248006802F081FE01A92048039A32
:10122000FEF7A8FF02AA69461E48006802F076FE93
:1012300069461D48029AFEF79DFF2DE003AA01A909
:101240001648006802F06AFE01A91848039AFEF7E2
:1012500091FF02AA69461348006802F05FFE6946E2
:101260001348029AFEF786FF16E003AA01A90B486D
:10127000006802F053FE01A90E48039AFEF77AFFB8
:1012800002AA69460748006802F048FE69460A4813
:10129000029AFEF76FFF00BF00BF1FBD000A0020CB
:1012A000080A0020040A00200A0A00200C0A002074
:1012B0000E0A0020100A0020120A002010B5044671
:1012C00000F0DEF82F48007800114FF47A7148439F
:1012D0002C49097801F00F0101EBC10202EB011169
:1012E00000EB810027494978091101EB810100EBEE
:1012F00041002449497801F00F0108442080214829
:10130000807800F00F001F498978091101EB8101F5
:1013100000EB4100A0701B48C07800F00F00194995
:10132000C978091101EB810100EB4100E07015481B
:10133000007900F00F0013490979091101EB8101CF
:1013400000EB410020710F48407900F00F000D497B
:101350004979091101EB810100EB410060710948F5
:10136000807900F00F0007498979091101EB8101AB
:1013700000EB4100A0710348C07900F00F00E0715C
:1013800010BD0000EC09002008B50121082002F082
:10139000CFF90820ADF8000003208DF802001020DE
:1013A0008DF8030069460C4800F07DFC08210A48CE
:1013B00000F055FD2020ADF8000003208DF802005C
:1013C00010208DF803006946034800F06CFC2021D2
:1013D000014800F044FD08BD000C014070B5044612
:1013E0000020254908602549C1F8940101202249BF
:1013F000086004F02BFE44F00104002616E004F01F
:10140000010020B101201C49091D086003E00020F3
:101410001949091D0860012017490831086000209A
:101420001649C1F894016410701CC6B2082EE6DBA0
:1014300004F0FAFD002613E06D100F487C380068B8
:1014400010B145F0800501E005F07F0501200A4953
:101450000831086000200949C1F89401701CC6B227
:10146000082EE9DB01200449083108600020034907
:10147000C1F88C01284670BD8C8121420080214238
:1014800010B58C20FFF7AAFF114948708820FFF79C
:10149000A5FF0F4988708620FFF7A0FF0C49C87090
:1014A0008420FFF79BFF0A4908718220FFF796FF0F
:1014B000074948718020FFF791FF00F07F00044941
:1014C00088718A20FFF78AFF0149C87110BD0000AA
:1014D000EC09002070B504460E460020254908603E
:1014E0002549C1F8940101202249086004F0AEFDAD
:1014F00004F0FE04002516E004F0010020B10120F4
:101500001C49091D086003E000201A49091D0860F4
:10151000012018490831086000201749C1F89401DA
:101520006410681CC5B2082DE6DB002516E006F045
:10153000010020B101200F49091D086003E00020CF
:101540000C49091D086001200A4908310860002083
:101550000949C1F894017610681CC5B2082DE6DB74
:10156000012004490831086000200349C1F88C01BA
:1015700070BD00008C8121420080214200B587B0FF
:101580000020069006AA01A91E48006802F0C6FCC9
:1015900001A91D48069AFEF7EDFD00218E20FFF7F8
:1015A00099FF80210846FFF795FF174841788C2066
:1015B000FFF790FF144881788820FFF78BFF1248CF
:1015C000C1788620FFF786FF0F4801798420FFF756
:1015D00081FF0D4841798220FFF77CFF0A4881791D
:1015E0008020FFF777FF0848C1798A20FFF772FF54
:1015F000A5219020FFF76EFF80218E20FFF76AFF64
:1016000007B000BDF4090020F80900207047000071
:1016100030B58BB000200790089009900A90012502
:1016200035A338A238A13AA003F090FE07A8002104
:1016300002910391CDE9041000912B022EA2019199
:1016400030A131A001F03AF8002843D1089A91B2B4
:10165000079800F02BFAFA2000F0FCF80446002C62
:101660002FD0204601F0F2FC02282AD1204601F0BA
:10167000BEFB062820D2DFE800F0030B0F13171B78
:101680002BA003F063FE002500202E49C87017E050
:101690002DA003F05BFE13E032A003F057FE0FE035
:1016A00039A003F053FE0BE03FA003F04FFE07E02C
:1016B00046A003F04BFE03E04FA003F047FE00BF3F
:1016C00000BF2048C078401C1E49C87007A800F021
:1016D000C3FE07E01B48C078401C1A49C8704DA0E3
:1016E00003F034FE1748C078022801DD02F018FD2F
:1016F00028460BB030BD0000313231353439363038
:1017000036300000390000003633343538390000F7
:1017100050524F49443A20257309415549463A20D1
:1017200025730944455649443A25730D0A000000C3
:10173000546970733A09C1ACBDD3B3C9B9A60D0AD7
:10174000000000004C5400205741524E3A09C1ACF1
:10175000BDD3CAA7B0DCA3BAD0ADD2E9B4EDCEF305
:101760000D0A00005741524E3A09C1ACBDD3CAA779
:10177000B0DCA3BAB7C7B7A8B5C4636C69656E74AB
:1017800069640D0A000000005741524E3A09C1AC8D
:10179000BDD3CAA7B0DCA3BAB7FECEF1C6F7CAA7BD
:1017A000B0DC0D0A000000005741524E3A09C1ACAE
:1017B000BDD3CAA7B0DCA3BAD3C3BBA7C3FBBBF2DC
:1017C000C3DCC2EBB4EDCEF30D0A00005741524E1C
:1017D0003A09C1ACBDD3CAA7B0DCA3BAB7C7B7A892
:1017E000C1B4BDD328B1C8C8E7746F6B656EB7C705
:1017F000B7A8290D0A0000004552523A09C1ACBDF4
:10180000D3CAA7B0DCA3BACEB4D6AAB4EDCEF30D3A
:101810000A0000005741524E3A094D5154545F504E
:1018200061636B6574436F6E6E65637420466169B6
:101830006C65640D0A00000010B54FF48071034818
:10184000FEF7B1FC00200249088010BD4C4B00207F
:101850003A0A002070B50546002400BF00F048F9A0
:1018600080B90DA10E48FEF7B5FC044654B13A21EB
:101870002046FEF7C1FC044614B1641C204670BD2E
:101880000020FCE7052004F083FB281EA5F10101E0
:101890008DB2E3D100BFF2E74950442C00000000B4
:1018A0004C4B002000B5A1B0FA2004F071FBFFF70B
:1018B000C3FF32A003F04AFD03E04FF4967004F03A
:1018C00067FBC8222FA130A000F0C8F80028F4D18F
:1018D0002FA003F03BFD03E04FF4967004F058FB9B
:1018E000C82228A12DA000F0B9F80028F4D12FA01B
:1018F00003F02CFD03E04FF4967004F049FBC8227E
:1019000020A12DA000F0AAF80028F4D12EA003F009
:101910001DFD802101A8FEF746FC2DA32FA232A1B8
:1019200001A803F023FD03E04FF4967004F030FBB0
:10193000C82233A101A800F091F80028F4D132A008
:1019400003F004FD802101A8FEF72DFC41F2727323
:1019500030A234A101A803F009FD03E04FF4FA70AE
:1019600004F016FBC82236A101A800F077F8002881
:10197000F4D135A003F0EAFC21B000BD41540D0ABA
:10198000000000004F4B000041540D0A0D00000004
:1019900043574D4F44450D0A0000000041542B436E
:1019A000574D4F44453D310D0A00000041542B4333
:1019B00057444843500D0A0041542B435744484371
:1019C000503D312C310D0A0043574A41500D0A0059
:1019D000703637356570683900000000434D434369
:1019E0002D4B50554400000041542B43574A415061
:1019F0003D222573222C222573220D0A00000000AF
:101A0000474F5420495000004349505354415254C9
:101A10000D0A00003138332E3233302E34302E335D
:101A20003900000041542B43495053544152543D16
:101A300022544350222C222573222C25640D0A00A7
:101A4000434F4E4E454354004553503832363620AE
:101A5000496E6974204F4B0D0A0000002DE9F041DA
:101A600005460E4614462846FEF7D0FB87B2394697
:101A7000284603F0EFFB0FE000F03AF848B9314692
:101A80000948FEF7A7FB20B1FFF7D6FE0020BDE80E
:101A9000F0810A2004F07CFA201EA4F101018CB22E
:101AA000EAD10120F3E700004C4B002030B589B0AB
:101AB00005460C46FFF7C0FE224608A101A803F028
:101AC00055FCC82209A101A8FFF7C8FF18B9214693
:101AD000284603F0BFFB09B030BD000041542B4342
:101AE000495053454E443D25640D0A003E00000018
:101AF0000A48008808B9012070470848008808494A
:101B00000988884203D1002004490880F4E703488B
:101B10000088034908800120EEE700003A0A00200F
:101B20003C0A0020044900E0521C11F8013B002B44
:101B3000FAD15008704700002409002010B504466F
:101B4000062C22D2DFE804F003080D12171C012135
:101B5000084601F0CDFD18E00121022001F0C8FD8A
:101B600013E00121042001F0C3FD0EE00121082053
:101B700001F0BEFD09E00121102001F0B9FD04E0F3
:101B80000121202001F0B4FD00BF00BF10BD70B5E1
:101B900004460D4616462046FFF7D0FF324629463A
:101BA000204600F05AF8204600F001F870BD3EB51E
:101BB0000446204602F0D6FF0546062C33D2DFE865
:101BC00004F0030B131B232A4FF47A70ADF80400C2
:101BD0004820ADF8000026E040F2E730ADF8040000
:101BE0004720ADF800001EE04FF47A70ADF8040015
:101BF0004820ADF8000016E040F2E630ADF80400F1
:101C00004620ADF800000EE05920ADF804004F204A
:101C1000ADF8000007E040F2E730ADF804004720DF
:101C2000ADF8000000BF00BF0020ADF80600ADF821
:101C300002008DF808006946284602F041FF0121A4
:101C4000284602F0A9FC01221146284602F0CBFDED
:101C50000021284602F0A6FC3EBDF8B506460C461B
:101C600015464FF4A06001F0F9FA26B1012E06D016
:101C7000022E0CD107E01C208DF8000007E01D208B
:101C80008DF8000003E01E208DF8000000BF00BFAB
:101C90008DF801408DF8025001208DF80300684650
:101CA00001F0A4FAF8BD2DE9F04102460025002616
:101CB000002000230024002791F803C00CF00F053A
:101CC00091F803C00CF0100CBCF1000F03D091F898
:101CD00002C04CEA050591F800C0BCF1000F31D0FC
:101CE000146800202BE04FF0010C0CFA00F3B1F85F
:101CF00000C00CEA03069E4220D183004FF00F0C77
:101D00000CFA03F7BC4305FA03FC4CEA040491F80F
:101D100003C0BCF1280F06D14FF0010C0CFA00FCF7
:101D2000C2F814C00AE091F803C0BCF1480F05D115
:101D30004FF0010C0CFA00FCC2F810C0401C08283F
:101D4000D1D31460B1F800C0BCF1FF0F34DD54688A
:101D500000202EE000F1080C4FF0010808FA0CF307
:101D6000B1F800C00CEA03069E4221D183004FF077
:101D70000F0C0CFA03F7BC4305FA03FC4CEA04040D
:101D800091F803C0BCF1280F05D100F1080C08FA46
:101D90000CF8C2F8148091F803C0BCF1480F07D1C9
:101DA00000F1080C4FF0010808FA0CF8C2F8108096
:101DB000401C0828CED35460BDE8F081F0B50A4637
:101DC000002300240021002500F00046B6F1004F5A
:101DD00002D11D4EF16901E01B4E7168C0F303454D
:101DE00083B200F44016B6F5401F08D121F07061AF
:101DF000154E766826F07066134F7E6012E000F490
:101E00008016B6F5801F06D1032606FA05F4A14315
:101E100041F0706106E0460D360103FA06F6B14363
:101E200041F0706122B1460D360103FA06F63143E6
:101E300000F00046B6F1004F02D1034EF16101E01F
:101E4000014E7160F0BD000000000140024600201C
:101E500093680B400BB1012000E000207047416106
:101E600070470161704700BFFEE7000000B591B008
:101E70004FF4A06001F0F2F9FFF754FE59490860F1
:101E800004F064F8012200210220FFF780FE4FF4E5
:101E9000165003F039F94FF4E13003F085F902F000
:101EA00087F900F0B5FA00F089FAFFF76DFA14200F
:101EB00002F072FA01F0A4FA002001F05CFA0020AE
:101EC00001F067FA48A104A803F050FA04AA03211C
:101ED000002001F021FB04F07BFB474847490860E4
:101EE0000020474908604FF4FA7046490860002016
:101EF000454908604DE000BF444800680128FBD018
:101F00004349072004F023FB414800788007800BF9
:101F10003F49497840EA01203D49897808433D49D5
:101F2000394A126841F822003948C0788007800B8E
:101F30003749097940EA012035494979084336494A
:101F4000314A126841F8220032482F49096850F896
:101F500021002A490968884206D22E482A49096880
:101F600050F82100254908602A482749096850F897
:101F7000210023490968884206D926482249096870
:101F800050F821001E4908601F480068401C1E4987
:101F900008601D4800681B4909688842ABDB1D4882
:101FA0001949096850F821001C4908601C481D495E
:101FB0001D4A1E4BCDE900210290164A11480168C6
:101FC000154804F073FB02E0052003F0E1FF184917
:101FD000184801F0B7FC0128F6D101F0C7F911B09B
:101FE00000BD0000B40900202D2D2D204D41583397
:101FF00030313032202D2D00FFFF0300140000206F
:102000001800002000000020200000201C81214238
:102010002D0000205C1A00208C1200201C000020E3
:10202000100000200C000020080000200400002008
:1020300068540020580A002008B50121082001F04A
:1020400077FB4FF48070ADF8000004208DF803009A
:1020500069460248FFF727FE08BD0000000C01405A
:1020600008B50121082001F063FB4FF48070ADF842
:10207000000003208DF8020010208DF8030069464F
:102080000148FFF710FE08BD000C01403EB50020DE
:102090008E4908608E488F49086000208E4908608C
:1020A00064208A4908603AE08C488849096850F8F9
:1020B0002110864800686438884A42F82010884811
:1020C0008249096850F82110804800686438844AC1
:1020D00042F8201081487D49096850F821007D4967
:1020E0000968884206D27D487849096850F821007D
:1020F0007849086079487549096850F8210076499F
:102100000968884206D975487049096850F8210065
:10211000714908606D480068401C6C4908606B4854
:102120000068B0F5FA7FBFDB4FF4C87067490860FC
:10213000B7E066480068401E684951F820006949C8
:10214000086000BF684800680128FBD06749072085
:1021500004F0FDF9654800788007800B63494978F1
:1021600040EA01206149897808435C49574A12686E
:1021700041F822005D48C0788007800B5B490979EF
:1021800040EA012059494979084355494F4A1268A4
:1021900041F8220051484D49096850F82100514941
:1021A0000968884231D94D49484A126851F82210CD
:1021B0004C4A1268881AFEF79AFB4D490860464956
:1021C0000968444A1268881AFEF791FB04462146C2
:1021D00047480068FEF734FA4549086045494448D5
:1021E0000068FEF7FBF94249086008460068FEF700
:1021F00083FB41490968081A3F490860084600689E
:10220000002833DA0020086030E034492F4A126891
:1022100051F82210334A1268501AFEF768FB34490D
:1022200008602D4909682B4A1268881AFEF75FFB7F
:10223000044621462E480068FEF702FA2C49086041
:102240002C492B480068FEF7C9F92949086008465F
:102250000068FEF751FB28490968084426490860D0
:1022600008460068FF2801DDFF2008602348007849
:1022700001280CD122480068782808DA2048007824
:1022800020490870204800782049087004E00020A8
:102290001C4908701D4908700C480068401C0B4917
:1022A00008600A480068B0F5FA7FFFF642AF1348AD
:1022B0001349174A144BCDE900210290074A1548EB
:1022C0000168074804F0F2F93EBD0000200000203C
:1022D000FFFF030014000020180000205C1A0020FB
:1022E0008C1200201C0000201C8121422D000020A7
:1022F0002800002000007F43240000201000002060
:102300000C000020330000200400002034000020D6
:10231000080000200000002010B5044614B1012080
:10232000244908702348007860B34FF48051224854
:10233000FFF78CFD58B14FF400511F48FFF786FDA1
:1023400028B14FF480411C48FFF780FDD0B9002030
:10235000184908704FF480511748FFF777FD08B906
:10236000012010BD4FF400511348FFF76FFD08B96D
:102370000220F6E74FF480410F48FFF767FDB0B940
:102380000320EEE74FF480510B48FFF75FFD012873
:102390000DD141030848FFF759FD012807D18103FA
:1023A0000548FFF753FD012801D1024908700020BC
:1023B000D7E7000050000020000C014008B50121C3
:1023C000082001F0B5F94FF48050ADF80000482026
:1023D0008DF8030069460D48FFF765FC4FF4005087
:1023E000ADF8000048208DF8030069460748FFF764
:1023F0005AFC4FF48040ADF8000048208DF80300EF
:1024000069460248FFF74FFC08BD0000000C014080
:1024100008B50121182001F08BF94FF40050ADF8F8
:10242000000010208DF8030003208DF8020069469B
:102430000648FFF738FC4020ADF800006946044824
:10244000FFF731FC00200349086008BD001001407F
:10245000000C0140B401224210B50446207B012843
:1024600002D1206802F096FF002020606060A0602A
:10247000207310BD0246002301230DE002F07F000F
:102480000870D2092AB1087840F080000870491C11
:1024900001E0184670475B1C042BEFDD4FF0FF3066
:1024A000F8E7000010B5C0B004464FF480716846EC
:1024B000FDF779FE30A0008820803048007B32286C
:1024C0000FDA4FF480716846FDF76DFE2B48437BB1
:1024D000027B2BA1684602F049FF69462046FDF7C2
:1024E0006DFE2C480068002824DD2A4800689628E4
:1024F00020DA29480078E8B14FF480716846FDF78A
:1025000052FE244825A10268684602F02FFF694662
:102510002046FDF753FE4FF480716846FDF743FEF9
:10252000224823A10268684602F020FF694620463F
:10253000FDF744FE4FF480716846FDF734FE2048F5
:10254000C27820A1684602F011FF69462046FDF7D7
:1025500035FE4FF480716846FDF725FE1DA16846E3
:1025600002F004FF69462046FDF728FE2046FDF7ED
:102570004DFEC0B240B010BD7B0000004C540020A6
:102580002274656D70223A22253032642E25303255
:1025900064222C000C0000200800002022687265D4
:1025A0006174223A222564222C00000004000020DD
:1025B00022626C6F6F64223A222564222C00000094
:1025C000685400202277616E696E67223A22256482
:1025D000220000007D00000070B504460E46002574
:1025E000206898B901202073304602F001FF206076
:1025F0002068E0B100206060A66003E00020216850
:1026000048556D1CA068A842F8D810E0022020733D
:1026100003E00020216848556D1CA068A842F8D846
:1026200000206060A068B04201D20020206070BD30
:102630002DE9FF5F07460D4690463846FDF7E6FD5B
:1026400086B22846FDF7E2FD1FFA80FA4FF0000936
:10265000B01D02F0CDFE04461CB9012004B0BDE857
:10266000F09FB11D2046FDF79EFD12A0016821607C
:102670008088A080324639462046FDF7DCFD28469A
:10268000FDF7C4FD83460120002100915B462A46E8
:10269000CDE90208019121460A2000F05FF910B946
:1026A0004FF0000901E04FF00109204602F072FEF0
:1026B0004846D3E724637273702F00002DE9FF4F63
:1026C00083B082468B469146159C002500200290DF
:1026D0000F2701904846FDF799FD0FFA80F8B9F1F0
:1026E000000F03D1012007B0BDE8F08F08F1020010
:1026F000384487B2109808B145F00205129878B1B5
:1027000045F004051298FDF781FDC0B202901398C0
:10271000FDF77CFD01460298001D0844384487B24D
:10272000119820B1012804D0022808D104E000BF8C
:1027300007E045F00C0504E045F0140501E0022037
:10274000D1E700BF149808B145F02405BAF1000F95
:1027500002D0BBF1000F01D10320C4E745F0C00552
:102760005046FDF753FD06465846FDF74FFD3044F1
:10277000001D384487B239462046FFF72DFF2068F8
:1027800008B90420AFE739462068FDF70CFD102199
:102790006268501C606020688154D4E90023D1181D
:1027A000781FFFF767FE00B201900198002804DA55
:1027B0002046FFF751FE052095E76168019808441F
:1027C000606000216268501C6060206881540421B0
:1027D0006268501C6060206881544D216268501C02
:1027E00060602068815451216268501C60602068DC
:1027F000815454216268501C606020688154626872
:10280000501C60602068815404216268501C606024
:10281000206881546168481C6060206845540698AF
:10282000010A6268501C6060206881540698C1B239
:102830006268501C606020688154C8F30721626898
:10284000501C6060206881546268501C6060206881
:1028500000F80280D4E90012881842464946FDF784
:10286000EAFC60684044606005F00400B8B30026EC
:10287000139808B938A013901298FDF7C7FC86B2D8
:10288000310A6268501C6060206881546268501C84
:10289000606020688654D4E9001288183246129984
:1028A000FDF7C9FC6068304460601398FDF7AEFC2A
:1028B00086B2310A6268501C606020688154626888
:1028C000501C606020688654D4E900128818324693
:1028D0001399FDF7B0FC60683044606000BF05F0FC
:1028E0008000C8B15046FDF791FC86B2310A62689B
:1028F000501C6060206881546268501C60602068D1
:102900008654D4E90012881832465146FDF793FCEC
:1029100060683044606000BF05F04000C8B15846B0
:10292000FDF774FC86B2310A6268501C6060206852
:1029300081546268501C606020688654D4E900129B
:10294000881832465946FDF776FC6068304460606E
:1029500000BF0020C7E60000000000002DE9FF4F87
:1029600083B0834690469946139C0026002500209C
:10297000029001900027BBF1000F03D1012007B0A6
:10298000BDE8F08F00250AE00498405D232803D0BD
:102990000498405D2B2801D10220F0E76D1C0498BB
:1029A000405D0028F0D147F03007119808B147F09A
:1029B000010705EB0900861C109820B1012804D0FE
:1029C00002280AD105E000BF09E047F00207B61C63
:1029D00005E047F00407B61C01E00320CFE700BF85
:1029E00098F80000022822D14FF0000A00BF50469C
:1029F0000AF1010A18F800007D28F8D1AAF1030AAB
:102A00000AF1070002900298A9EB000AF01CA0EB63
:102A10000A012046FFF7E0FD206808B90420AEE770
:102A2000F21CA2EB0A012068FDF7BDFB0BE0F11CD4
:102A30002046FFF7D1FD206808B904209FE7F11C6C
:102A40002068FDF7B0FB6168481C6060206847544F
:102A5000D4E9000281183046FFF70CFD019001987F
:102A6000002804DA2046FFF7F7FC052087E76168B5
:102A7000019808446060C5F307216268501C6060DB
:102A8000206881546268501C606020688554D4E9D5
:102A9000001288182A460499FDF7CDFB6068284487
:102AA0006060109860B14FEA1B216268501C606042
:102AB000206881546268501C6060206800F802B091
:102AC000B8F1000F19D098F8000002280BD1D4E912
:102AD000001288184146029AFDF74CFB6168029883
:102AE0000844606009E0D4E9001288184A4641466B
:102AF000FDF740FB60684844606000203FE770B528
:102B000005460C4604212046FFF766FD206808B9FB
:102B1000012070BD40216268501C606020688154B3
:102B200002216268501C606020688154291262682A
:102B3000501C6060206881546268501C606020688E
:102B400085540020E5E770B505460C460421204673
:102B5000FFF742FD206808B9012070BD702162684E
:102B6000501C60602068815402216268501C6060C3
:102B70002068815429126268501C6060206881546A
:102B80006268501C6060206885540020E5E770B5DD
:102B900005460C4604212046FFF71EFD206808B9B3
:102BA000012070BD50216268501C60602068815413
:102BB00002216268501C606020688154291262689A
:102BC000501C6060206881546268501C60602068FE
:102BD00085540020E5E770B505460C4604212046E3
:102BE000FFF7FAFC206808B9012070BD6221626815
:102BF000501C60602068815402216268501C606033
:102C00002068815429126268501C606020688154D9
:102C10006268501C6060206885540020E5E72DE95B
:102C2000FF5F8046174699460E9C0026B246B34683
:102C30000025B8F1000F03D1012004B0BDE8F09FDA
:102C40000BE057F8250008B90220F6E757F82500F1
:102C5000FDF7DCFA0644681CC5B24D45F1DB09EB13
:102C60004900801C00EB060A0AF105012046FFF727
:102C7000B3FC206808B90320DFE782216268501C9A
:102C8000606020688154D4E9000281185046FFF743
:102C9000F1FB0FFA80FBBBF1000F04DA2046FFF7CF
:102CA000DBFB0420C9E76068584460604FEA1821E4
:102CB0006268501C6060206881546268501C6060CB
:102CC000206800F80280002524E057F82500FDF771
:102CD0009DFA0646C6F307216268501C60602068B2
:102CE00081546268501C606020688654D4E90023D7
:102CF000D01857F825103246FDF79DFA6068304429
:102D000060600198C1B26268501C606020688154A4
:102D1000681CC5B24D45D8DB00208EE7F0B50446EF
:102D20000D462646012300201060002114E0775C48
:102D300007F07F07106807FB03001060705C00F06D
:102D4000800008B9481CF0BDDB01B3F5001F02D3B9
:102D50006FF00100F7E7491CA942E8DB4FF0FF30B4
:102D6000F1E72DE9F84380460C4615461E462F2113
:102D700008F10600FDF740FA07460020009017B959
:102D80000120BDE8F8837F1C6A46042108F1010098
:102D9000FFF7C4FF252002F02BFB2060206808B954
:102DA0000220EEE725212068FDF7FDF924223946AF
:102DB0002068FDF7DFF9243700982C3830803188FF
:102DC000481C02F015FB2860286820B9206802F032
:102DD000E1FA0320D5E73288511C2868FDF7E3F9B2
:102DE000328839462868FDF7C5F90020C9E7014651
:102DF0004878022801D001207047887810B188787F
:102E0000012801D1C878F7E7FF20F5E72DE9FC5F3D
:102E100081460D4614461E46DDE90C8B99F80000EC
:102E200000F00F0A002001900AF008000090CAF399
:102E300041008BF8000001AA042109F10100FFF70D
:102E40006DFF4844471C0198022802D30AF0010094
:102E500010B1FF20BDE8FC9F7878397840EA012066
:102E600020802088801C0199884201D9FF20F1E749
:102E700054A1B81CFDF7AEF908B10F20EAE79BF8A2
:102E8000000020B101283DD0022877D13BE0009816
:102E900008B1FF20DEE72188481C02F0A9FA28606B
:102EA000286808B9FF20D5E72288511C2868FDF75B
:102EB0007AF92288B91C2868FDF75CF90198801E10
:102EC0002188401AA8F80000B8F80010481C02F049
:102ED0008FFA3060306820B9286802F05BFAFF2072
:102EE000B8E7B8F80020511C3068FDF75CF9B8F875
:102EF0000020B4F800C0BB1C0CEB03013068FDF7E8
:102F000039F94FE000BF2088801C0199884201D91F
:102F1000FF209FE72088C01C395C2088801C385C1B
:102F200041EA00210E9801800E9808B9FF2091E730
:102F30002188481C02F05CFA2860286808B9FF2044
:102F400088E72288511C2868FDF72DF92288B91CD2
:102F50002868FDF70FF90198001F2188401AA8F88A
:102F60000000B8F80010481C02F042FA30603068E7
:102F700028B9286802F00EFAFF206BE710E0B8F8D5
:102F80000020511C3068FDF70EF9B8F80020B4F8A5
:102F900000C03B1D0CEB03013068FDF7EBF801E0CE
:102FA000FF2057E700BF2B212846FDF725F920B960
:102FB00023212846FDF720F908B1FF204AE7002029
:102FC00048E70000246372657100000001464878FC
:102FD000022801D001207047887820B9C8780A28D3
:102FE00001D10020F7E70120F5E7014648780228E3
:102FF00001D001207047887820B9C8780A2801D10B
:103000000020F7E70120F5E701464878022801D0C3
:1030100001207047887820B9C8780A2801D100209B
:10302000F7E70120F5E702465078022801D0012099
:1030300070479078B0EB112F05D1D078CBB2984281
:1030400001D10020F4E70120F2E70000F8B50446C2
:10305000FF2720780511012D01DB0E2D01DD3846FB
:10306000F8BD032D24D1002000906A460421601C85
:10307000FFF754FE2044461C0098022803D3207812
:1030800000F0010008B1FF20EAE77078317840EAEB
:103090000120801C0099884201D9FF20E0E706A1A9
:1030A000B01CFDF797F808B10F2700E0032700E0F8
:1030B0002F463846D4E70000246372657100000093
:1030C0000146FF208A78A2B9CA78142A11D10A7958
:1030D00032B1012A05D0022A04D0802A06D103E0A9
:1030E00000BF00BF002003E0012001E0022000BF7C
:1030F00000BF7047014601208A781AB9CA781E2A93
:1031000000D10020704700BFFEE7000010B5A0B05E
:10311000044680216846FDF746F811A0008820800B
:1031200080216846FDF73FF80E4802780EA16846F8
:1031300002F01CF969462046FDF740F880216846F8
:10314000FDF731F80DA1684602F010F969462046F6
:10315000FDF734F82046FDF759F8C0B220B010BD95
:103160007B0000006854002022636865636B5F6425
:103170006576696365223A22256422007D0000009D
:1031800010B5A0B0044680216846FDF70CF811A0E8
:103190000088208080216846FDF705F801220EA1F5
:1031A000684602F0E3F869462046FDF707F88021FB
:1031B0006846FCF7F8FF0BA1684602F0D7F86946AD
:1031C0002046FCF7FBFF2046FDF720F8C0B220B0F8
:1031D00010BD00007B0000002274696D65223A2258
:1031E000256422007D0000007047000070B50021BA
:1031F00000230F22C47804B3154C246804F4E0645F
:10320000C4F5E064210AC1F10403CA40447804FA19
:1032100003F184781440214309010E4C0678A1552E
:10322000047804F01F050124AC4005786D11AD0051
:1032300005F1E025C5F8004109E0047804F01F0518
:103240000124AC40044D0678761145F8264070BD47
:103250000CED00E000E400E080E100E00249014301
:10326000024A1160704700000000FA050CED00E012
:1032700000B58DB000F07AF821A1684602F076F82A
:103280006A460021084600F047F921A223A16846BA
:1032900002F06CF86A460221002000F03DF924A2F9
:1032A00026A1684602F062F86A460421002000F078
:1032B00033F927A1684602F059F86A460621002032
:1032C00000F02AF9FEF7EEFA03E04FF4967002F0F0
:1032D0005FFEFEF79DF90028F7D103E04FF49670EA
:1032E00002F056FE01211F4800F08EFE0028F5D1A5
:1032F0003C201D49087000F039F80DB000BD0000F9
:103300002DC7EBB4F2BFAA57494649C8C8B5E30078
:10331000434D43432D4B5055440000002DC3FBB398
:10332000C63A2573202020202020202020000000E5
:103330007036373565706839000000002DC3DCC277
:10334000EB3A2573202020202020202020000000A0
:103350002DC6B5C2CA3A20322E342047487A2020E2
:103360002000000038000020540A002010B5002082
:1033700000F025F810BD10B504461CB90021A620A8
:1033800000F07CF9012C03D10021A72000F076F990
:1033900010BD10B504463CB90021C82000F06EF9FC
:1033A0000021A12000F06AF9012C07D10021C020E2
:1033B00000F064F90021A02000F060F910BD70B5A4
:1033C0000646002419E004F1B001C8B2002100F063
:1033D00055F90021084600F051F90021102000F0B5
:1033E0004DF9002505E00121304600F047F9681C41
:1033F000C5B2822DF7DB601CC4B2082CE3DB70BDC4
:1034000008B50121042000F093F93C20ADF800003C
:1034100010208DF8030003208DF8020069463D4816
:10342000FEF741FC3C213B48FEF71BFD0021AE208E
:1034300000F024F90021084600F020F900211020B6
:1034400000F01CF90021402000F018F90021812033
:1034500000F014F90021CF2000F010F90021A12084
:1034600000F00CF90021C82000F008F90021A62086
:1034700000F004F90021A82000F000F900213F200D
:1034800000F0FCF80021D32000F0F8F800210846F5
:1034900000F0F4F80021D52000F0F0F800218020A1
:1034A00000F0ECF80021D92000F0E8F80021F1202C
:1034B00000F0E4F80021DA2000F0E0F8002112200A
:1034C00000F0DCF80021DB2000F0D8F800214020DB
:1034D00000F0D4F80021202000F0D0F800210220D4
:1034E00000F0CCF800218D2000F0C8F80021142055
:1034F00000F0C4F80021A42000F0C0F80021A620AC
:1035000000F0BCF80021AF2000F0B8F8FFF72EFF64
:1035100008BD0000000801402DE9F0470746884635
:103520001646002584E03078A02845DD00253CE0E3
:10353000702F04DD002708F1020000F0FF0830784A
:103540003E4911F8151088422ED17078012101EB07
:1035500045013A4A515C884226D14146384600F03E
:1035600077F8002407E004EB4511354A505C01214F
:1035700000F084F8641C102CF5D308F10100C1B2EE
:10358000384600F065F8002408E004EB45111031DE
:103590002B4A505C012100F071F8641C102CF4D30C
:1035A00007F11000C7B204E06D1C26480068854290
:1035B000BED300BFB61C3BE07A2F04DD002708F124
:1035C000020000F0FF0831781F48FCF715FE814625
:1035D000B9F1000F2BD04146384600F039F80024ED
:1035E0000AE099F80010203904EB0111174A505CE9
:1035F000012100F043F8641C082CF2D308F101000B
:10360000C1B2384600F024F800240BE099F800100D
:10361000203904EB011108310C4A505C012100F003
:103620002DF8641C082CF1D307F10800C7B2761CF2
:10363000307800287FF477AFBDE8F08724090020B8
:1036400044060020B4090020530900205400002043
:1036500070B504460D4605F1B001C8B2002100F076
:103660000DF8102141EA1410002100F007F804F0D1
:103670000F00002100F002F870BD000070B5044694
:103680000E4626B110211848FEF7EBFB03E010218F
:103690001548FEF7E4FB20211348FEF7E0FB002568
:1036A00017E004211048FEF7DAFB04F0800020B197
:1036B00008210D48FEF7D5FB03E008210A48FEF774
:1036C000CEFB04210848FEF7CCFB6006040E681C04
:1036D000C5B2082DE5DB20210348FEF7C2FB10210F
:1036E0000148FEF7BEFB70BD0008014070470000B6
:1036F00029B1064AD2690243044BDA6104E0034A65
:10370000D2698243014BDA61704700000010024029
:1037100029B1064A12690243044B1A6104E0034AC4
:1037200012698243014B1A61704700000010024089
:1037300029B1064A92690243044B9A6104E0034AA4
:1037400092698243014B9A61704700000010024069
:1037500029B1064AD2680243044BDA6004E0034A06
:10376000D2688243014BDA607047000000100240CB
:1037700030B500210022002400232D4D6D6805F096
:103780000C0121B1042905D0082923D105E0294DD8
:10379000056022E0274D05601FE0254D6D6805F4AA
:1037A0007012234D6D6805F48034022505EB9242BA
:1037B0001CB9214D554305600BE01D4D6D6805F4A6
:1037C00000351DB11C4D5543056002E0194D5543B0
:1037D000056002E0174D056000BF00BF144D6D6825
:1037E00005F0F0010909154D6B5C0568DD40456089
:1037F0000F4D6D6805F4E061090A104D6B5C45687A
:10380000DD4085600A4D6D6805F46051C90A0B4DB5
:103810006B5C4568DD40C560054D6D6805F4404151
:10382000890B074D6B5CC568B5FBF3F5056130BDD1
:103830000010024000127A0000093D00260A002014
:10384000360A002000B501221B491C48006800F020
:10385000C5FC01221849491C1948006800F0BEFC4B
:1038600001221549091F1748006800F0B7FC012222
:103870001149C91E1448006800F0B0FC01220E492D
:10388000891C1248006800F0A9FC01220A49C91CE1
:103890000F48006800F0A2FC01220749891E0D486C
:1038A000006800F09BFC01220349491E0A48006899
:1038B00000F094FC00BD000071540020BC09002001
:1038C000C0090020C4090020C8090020CC0900203C
:1038D000D0090020D4090020D809002010B50446E2
:1038E0001348FDF7EBFC1348008800F4004080B15A
:1038F00011488078114908730F48C0780A2190FB5D
:10390000F1F00E4948730846007B0873002009490E
:103910000880FA210A4801F0B5FCCA21084801F0E4
:10392000B1FCC421064801F0ADFC012010BD00002F
:10393000600A0020200A0020204200204C54002071
:103940000038014070B504460D46FFF77BFF0020AC
:1039500001490871012070BD6854002070B58CB019
:1039600006460020089009900A900B900790069058
:10397000059004900024039000253046FFF766FB75
:103980000446E01E0D2870D2DFE800F028707B931B
:10399000ADCDB5CDC1CDCDCD070004AB07AA06A9ED
:1039A0003046FFF7DEF90546BDB9BDF810306BA013
:1039B000DDE9061201F0CAFC08AADDE90601FEF7FE
:1039C00037FE50B96EA001F0C1FC099A91B2089877
:1039D000FEF76CF808A8FEF73FFDA7E06E4803A9C4
:1039E00004AA07ABCDE90021029005AA06A930463A
:1039F000FFF70CFA0546002D36D1BDF810000090F7
:103A0000BDF8142065A0DDE9061301F09FFC9DF8C8
:103A10000C00012802D0022824D111E008A95E4838
:103A20000088FFF76CF850B96BA001F08FFC099A81
:103A300091B20898FEF73AF808A8FEF70DFD12E0DB
:103A400008A955480088FFF7A2F850B968A001F00E
:103A50007DFC099A91B20898FEF728F808A8FEF7AD
:103A6000FBFC00E000BF00BF60E05CE03046FFF719
:103A7000ADFA10B964A001F069FC3C206A490870F5
:103A800054E03046FFF7C0FA90B968A001F05EFC40
:103A900008A90A20FFF79FF850B96AA001F056FC68
:103AA000099A91B20898FEF701F808A8FEF7D4FC2D
:103AB0003CE0394801883046FFF7B5FA90B967A075
:103AC00001F044FC08A90A20FFF73DF850B969A0AD
:103AD00001F03CFC099A91B20898FDF7E7FF08A8AD
:103AE000FEF7BAFC22E03046FFF77FFA10B968A073
:103AF00001F02CFC1AE03046FFF7E2FA18B96AA090
:103B000001F024FC02E06FA001F020FC0EE0304642
:103B1000FFF7F0FA18B972A001F018FC02E077A0E4
:103B200001F014FC02E04FF0FF3500BF00BFFDF7CD
:103B300083FE681C08B90CB070BD079810B10798D7
:103B400002F048FC0F2C01D0032C05D1069801F09F
:103B500021FC079801F01EFC00BFECE7636D64696F
:103B6000643A2025732C207265713A2025732C202D
:103B70007265715F6C656E3A2025640D0A00000065
:103B8000546970733A0953656E6420436D645265DD
:103B900073700D0A00000000560A0020746F7069EF
:103BA000633A2025732C20746F7069635F6C656EB7
:103BB0003A2025642C207061796C6F61643A20256D
:103BC000732C207061796C6F61645F6C656E3A2054
:103BD00025640D0A00000000546970733A095365AA
:103BE0006E64205075626C69736841636B0D0A00E6
:103BF000546970733A0953656E64205075626C693C
:103C000073685265630D0A00546970733A094D5127
:103C10005454205075626C6973682053656E64203B
:103C20004F4B0D0A00000000540A002054697073C5
:103C30003A09526576205075626C69736852656303
:103C40000D0A0000546970733A0953656E64205080
:103C500075626C69736852656C0D0A005469707303
:103C60003A09526576205075626C69736852656CCA
:103C70000D0A0000546970733A0953656E64205050
:103C800075626C697368436F6D700D0A0000000007
:103C9000546970733A09526576205075626C697385
:103CA00068436F6D700D0A00546970733A094D5185
:103CB000545420537562736372696265204F4B0DD3
:103CC0000A000000546970733A094D51545420534E
:103CD0007562736372696265204572720D0A000035
:103CE000546970733A094D51545420556E5375629E
:103CF000736372696265204F4B0D0A0054697073DB
:103D00003A094D51545420556E537562736372696C
:103D10006265204572720D0A0000000070470000C5
:103D200030B5C9B004460020459046904790489071
:103D300000254FF4807105A8FCF735FA012C06D058
:103D4000022C09D0032C0CD0042C14D10EE005A8B1
:103D5000FEF7A8FB05460FE005A8FFF711FA054698
:103D60000AE005A8FFF7D2F9054605E005A8FFF728
:103D7000CDF9054600E000BF00BFCDB145A8012147
:103D80000022CDE900122B4605AACDE9021009A1B7
:103D90000A20FEF7E3FD40B9469A91B24598FDF737
:103DA00085FE45A8FEF758FB02E00AA001F0CEFA16
:103DB00049B030BD2F62726F6164636173742F68A4
:103DC00039736A6832666156774F2F74657374323F
:103DD000000000005741524E0D0A000010B500F0DF
:103DE00001F810BD0CB50020019000903348006828
:103DF00040F480303149086000BF3048006800F46A
:103E0000003000900198401C0190009818B901986A
:103E1000B0F5A06FF1D12948006800F4003010B16E
:103E20000120009001E0002000900098012843D17B
:103E30002348006840F010002149086008460068E7
:103E400020F0030008600846006840F002000860A7
:103E50001A48406819494860084640684860084662
:103E6000406840F4806048600846406820F47C1058
:103E700048600846406840F4E8104860084600681A
:103E800040F08070086000BF0C48006800F00070CF
:103E90000028F9D00948406820F00300074948602D
:103EA0000846406840F00200486000BF0348406890
:103EB00000F00C000828F9D10CBD000000100240F1
:103EC0000020024010B501234FF47A720D490E48CC
:103ED00003F076FB0123FA220C490D4803F070FB36
:103EE000012340F6B8320B490B4803F069FB064842
:103EF00003F096FB064803F093FB074803F090FBA2
:103F000010BD000065740008902200206D74000848
:103F1000A022002095750008B02200202DE9F05F56
:103F200081460F4690464C464FF0000AD346204645
:103F3000FCF76CF9054600262046FCF767F90546B4
:103F400029E02078392808DD2078462802DD20780D
:103F5000662802DC2078373801E02078303800F01D
:103F6000FF0A601C04460078392808DD20784628BE
:103F700002DD2078662802DC2078373801E02078DE
:103F8000303800F0FF0B0AF00F01584661F31F10A4
:103F9000B855641C761C05EBD571B6EB610FD0DB10
:103FA000284605EBD0714910A5EB410171B120788D
:103FB000392808DD2078462802DD2078662802DCD2
:103FC0002078373801E020783038B855B8F1000F44
:103FD0000CD0284605EBD072294605EBD1735B1057
:103FE000A5EB430303EB6202C8F8002029462A46EA
:103FF00005EBD2704010A5EB400005EBD17300EB50
:104000006300BDE8F09F0000F0B585B004460D46A2
:1040100000260020019002900390049006E054F8DE
:1040200026101FA001F092F9701CC6B2AE42F6DB5A
:1040300001A82B462246022100901420FEF7EFFD36
:1040400000282BD1029A91B20198FDF72FFD4FF471
:10405000FA70FDF7FFFB07463846FEF7F7FF092821
:104060000AD115A001F072F901A8FEF7F5F90020B8
:104070001849C87005B0F0BD17A001F067F901A894
:10408000FEF7EAF91348C078401CC0B21149C87065
:10409000022801DD00F044F80120EBE70120E9E708
:1040A00053756273637269626520546F7069633A15
:1040B0002025730D0A000000546970733A094D51B0
:1040C000545420537562736372696265204F4B0DBF
:1040D0000A0000004C540020546970733A094D5195
:1040E000545420537562736372696265204572721D
:1040F0000D0A0000042808D14FF0E021096941F0C1
:1041000004014FF0E022116107E04FF0E02109695E
:1041100021F004014FF0E022116170477047000068
:10412000012080F3138800BF00BF0748006800F437
:10413000E06006490843001D03490860BFF34F8F44
:1041400000BF00BFFEE700000CED00E00000FA0534
:1041500010B51348006840F0010011490860084696
:104160004068104908400E494860084600680E49FA
:1041700008400B4908600846006820F48020086069
:104180000846406820F4FE0048604FF41F00886035
:10419000FFF724FE4FF000600449086010BD0000E6
:1041A000001002400000FFF8FFFFF6FE08ED00E0FF
:1041B00010B501210820FFF7BBFA01210846FFF7DF
:1041C000B7FA01210348FDF7F9FD01210248FDF787
:1041D000F5FD10BD000430000002300030B503468C
:1041E0000D480488B3F1006F01D2012030BD4FF0BB
:1041F000006000EB8420984201D20220F6E703E041
:1042000018780870491C5B1C101EA2F10105AAB2A7
:10421000F6D100BFEAE70000E0F7FF1F2DE9F84FF5
:104220008046894616465648B0F800A0A8F1006BB3
:104230004FEADB25CBF30A0000900098C0F5006739
:10424000B8F1006F02D20120BDE8F88F4FF0006096
:1042500000EB8A20404501D20120F5E749484A4950
:1042600048604A484860BE4200DC37467DE0484826
:1042700003F09CFA08B10220E6E74FF0006101EB81
:10428000C5200A144349FFF7A9FF414803F08EFAFD
:1042900008B10220D8E73C48006940F002003A49E2
:1042A00008614FF0006000EBC520486108460069D6
:1042B00040F040000861364803F078FA08B1022067
:1042C000C2E73148006941F6FD7108402E49086196
:1042D000002007E019F80020009901442D4B5A54A2
:1042E000411C88B2B842F5DB00242AE0284803F0DC
:1042F0005DFA08B10220A7E72348006940F00100F9
:1043000021490861234810F81400012101EB440100
:10431000204A515C40EA01204FF0006101EBC521C9
:1043200021F814001A4803F041FA08B102208BE783
:104330001548006941F6FE71084013490861601C88
:1043400084B2B4F5806FD1DBB74200D10EE0B9443E
:104350006D1C00200090F01B86B2B6F5006F02DDE8
:104360004FF4006000E03046074680E700BF064893
:10437000006940F0800004490861002064E7000003
:10438000E0F7FF1F2301674500200240AB89EFCD16
:1043900088888800C022002010B588B0044601211A
:1043A0000220FFF7A5F901210D20FFF7C1F9C02078
:1043B000ADF81C0018208DF81F0003208DF81E009A
:1043C00007A94F48FDF76FFC0320ADF81C0018202B
:1043D0008DF81F0003208DF81E0007A94948FDF73E
:1043E00062FC494800F0FAF8C720ADF8140041F625
:1043F0001F40ADF810000020ADF81600ADF8120017
:104400008DF8180004A9404800F05AFB7020ADF860
:1044100000000120ADF802000002ADF80C00002001
:10442000ADF808006020ADF800000020ADF80E00E7
:104430000820ADF80A000420ADF8040069463248AF
:1044400000F0DAF90821304800F022FA6020ADF8D7
:1044500000000020ADF80E000820ADF80A0004208E
:10446000ADF804006946284800F01CFA08212648E7
:1044700000F06AFA6020ADF800000020ADF80E00F0
:104480000820ADF80A000420ADF8040069461E4873
:1044900000F068FA08211C4800F0B4FA6020ADF87A
:1044A00000000020ADF80E000820ADF80A0004203E
:1044B000ADF804006946144800F0AEFA082112482D
:1044C00000F0E8FA0121104800F078F801210E48C8
:1044D00000F056F801210C4800F064F819210A4850
:1044E00000F0E5FA1921084800F0E3FA192106481E
:1044F00000F0E1FA1921044800F0DFFA08B010BD1D
:1045000000080140000C01400004004010B50121EA
:10451000174800F057F950B316480068401C154979
:10452000086003F0A5F8134800681921B0FBF1F208
:1045300001FB120010B900200F4908700D480068F7
:104540004FF47A71B0FBF1F201FB120058B9002070
:104550000849086009480078002804DD0748007809
:10456000401E064908700121014800F018F810BDEE
:1045700000080040740A0020780A0020540A002035
:1045800021B1028842F08002028004E002884FF6E6
:104590007F731A4002807047CA4302827047CA4341
:1045A0000282704721B1028842F00102028004E0D9
:1045B00002884FF6FE731A400280704731B1B0F89E
:1045C000442042F40042A0F8442005E0B0F8442022
:1045D000C2F30E02A0F844207047000010B5044654
:1045E0006848844208D10121C014FFF7B1F80021C6
:1045F000E014FFF7ADF8C4E0B4F1804F08D1012119
:104600000846FFF785F800210120FFF781F8B8E0A0
:104610005D48844208D101210220FFF779F800218A
:104620000220FFF775F8ACE05848844208D1012118
:104630000420FFF76DF800210420FFF769F8A0E0DF
:104640005348844208D101210820FFF761F8002176
:104650000820FFF75DF894E04E48844208D101211C
:104660001020FFF755F800211020FFF751F888E0DF
:104670004948844208D101212020FFF749F8002150
:104680002020FFF745F87CE04448844208D101210E
:104690004014FFF75DF800216014FFF759F870E04F
:1046A0003F48844209D10121C804FFF751F8002195
:1046B0004FF40020FFF74CF863E03A48844209D1F8
:1046C00001210805FFF744F800214FF48010FFF79F
:1046D0003FF856E03448844209D101214805FFF7EC
:1046E00037F800214FF40010FFF732F849E02F4867
:1046F000844208D101214020FFF70AF80021402020
:10470000FFF706F83DE02A48844208D101218020C5
:10471000FEF7FEFF00218020FEF7FAFF31E025487A
:10472000844208D101218015FEF7F2FF0021A01577
:10473000FEF7EEFF25E02048844209D1012108045C
:10474000FFF706F800214FF48030FFF701F818E07A
:104750001A48844209D101214804FEF7F9FF0021DB
:104760004FF40030FEF7F4FF0BE01548844208D107
:1047700001218804FEF7ECFF00214FF48020FEF7B2
:10478000E7FF10BD002C014000040040000800407D
:10479000000C0040001000400014004000340140B4
:1047A000004C0140005001400054014000180040FE
:1047B000001C004000200040004001400044014037
:1047C0000048014030B50246002000230024158A2D
:1047D00005EA0103958905EA010413B10CB1012032
:1047E00000E0002030BD1AB183890B43838102E0D1
:1047F00083898B438381704770B500240022002396
:10480000058C4FF6FE7635400584028C8388048B38
:104810004FF68F752C40B51E2C400D882C43751E0D
:104820002A400D892A434D882A43144DA8420BD0B3
:10483000134DA84208D0134DA84205D0124DA842EE
:1048400002D0124DA84213D14FF6F7752A404D8978
:104850002A434FF6FB752A408D882A434FF6FF65A1
:104860002B404FF6FF552B408D892B43CD892B4391
:1048700083800483CD888586028470BD002C01402E
:104880000034014000400140004401400048014024
:104890000A460021018B4FF6F7731940114301833B
:1048A0007047000070B5002400220023058C4FF6ED
:1048B000EF7635400584028C8388048B48F6FF75BB
:1048C0002C404FF6FF452C400D884FF6FF7606EA48
:1048D00005252C434FF6DF752A400D8906EA05159C
:1048E0002A434D8806EA05152A43154DA84202D0F1
:1048F000144DA8421DD14FF67F752A404D894FF6C1
:10490000FF7606EA05152A434FF6BF752A408D88C3
:1049100006EA05152A434FF6FF352B404FF2FF7587
:104920002B408D8906EA85052B43CD8906EA85054E
:104930002B4383800483CD880587028470BD0000EB
:10494000002C0140003401400A460021018B4FF247
:10495000FF7319404FF6FF7303EA022319430183E3
:104960007047000070B5002400220023058C4FF62C
:10497000FF6635400584028C8388848B4FF68F75E3
:104980002C404FF6FC752C400D882C434FF6FF55FC
:104990002A400D894FF6FF7606EA05252A434D8801
:1049A00006EA05252A43154DA84202D0144DA84217
:1049B0001DD14FF2FF752A404D894FF6FF7606EA6A
:1049C00005252A434FF6FF352A408D8806EA05253E
:1049D0002A434EF6FF752B404DF6FF752B408D890F
:1049E00006EA05152B43CD8906EA05152B4383807E
:1049F0008483CD888587028470BD0000002C01402F
:104A0000003401400A460021818B4FF6F7731940AC
:104A1000114381837047000070B5002200230024F9
:104A2000058C4EF6FF7635400584038C8488828B96
:104A300048F6FF752A404FF6FF452A400D884FF68D
:104A4000FF7606EA05252A434DF6FF752B400D89B2
:104A500006EA05352B434D8806EA05352B430B4DF9
:104A6000A84202D00A4DA84208D14BF6FF752C404F
:104A70008D894FF6FF7606EA85152C438480828364
:104A8000CD88A0F84050038470BD0000002C014088
:104A9000003401400A460021818B4FF2FF73194018
:104AA0004FF6FF7303EA022319438183704781861F
:104AB00070470187704781877047A0F840107047A2
:104AC000002202881D4B98420ED01D4B98420BD0FD
:104AD000B0F1804F08D01B4B984205D01A4B98423A
:104AE00002D01A4B984204D14FF68F731A404B886C
:104AF0001A43174B984207D0164B984204D04FF6F2
:104B0000FF431A40CB881A4302808B8883850B8829
:104B100003850A4B98420BD0094B984208D00E4BA4
:104B2000984205D00D4B984202D00D4B984201D1CE
:104B30000B7A03860123838270470000002C01401A
:104B4000003401400004004000080040000C004018
:104B500000100040001400400040014000440140AB
:104B6000004801400146022901D1024800BF00BFB0
:104B7000704700000008004010B540F2255117486A
:104B800000F07EF848B3154800F036F9C4B2144876
:104B9000008800F4004000BBFE2C05D10120114923
:104BA00008800020104908800E480088A8B10F48EE
:104BB0000D49098844540C480088401C0A49088063
:104BC00008460088082808DD0020064908800448B7
:104BD000008840F400400249088010BD00380140C0
:104BE000200A0020220A0020240A0020204200205F
:104BF00010B540F225510E4800F042F8B0B10D4812
:104C00000088FF2802D900200A4908800848001DB2
:104C10000088C1B2074802880088401C054B1880F4
:104C2000054881542021024800F008F810BD00001A
:104C3000004800403A0A00204C4B002001F400726A
:104C4000B2F5007F00D100BFCA430280704721B196
:104C5000828942F40052828104E082894DF6FF731A
:104C60001A408281704702460020B1F5007F00D1D2
:104C700000BF13880B400BB1012000E000207047FB
:104C800070B50246002400230025002040F66A1675
:104C9000B14200D100BFC1F3421501F01F0301264C
:104CA00006FA03F3012D02D19689334006E0022D66
:104CB00002D1168A334001E0968A33400C12012655
:104CC00006FA04F41688344013B10CB1012000E058
:104CD000002070BDF0B5034600240026002500200A
:104CE00040F66A17B94200D100BF1846C1F342141A
:104CF00001F01F06012707FA06F5012C01D10C303F
:104D000004E0022C01D1103000E014301AB1076821
:104D10002F43076002E00768AF430760F0BD000063
:104D20002DE9F04786B005460E460024A24600BF96
:104D3000A1460027B08900B100BF2F462C8A4CF64F
:104D4000FF700440F08804432C82AC894EF6F310C7
:104D50000440B08831890843718908430443AC8119
:104D6000AC8A4FF6FF400440B0890443AC8201A8EE
:104D7000FEF7FEFC1F48874202D1DDF810A001E0DB
:104D8000DDF80CA0A88900F4004040B10AEBCA008D
:104D900000EB0A1031684900B0FBF1F807E00AEBBC
:104DA000CA0000EB0A1031688900B0FBF1F86420FA
:104DB000B8FBF0F004012009642101FB1089A889E7
:104DC00000F4004040B1322000EBC900B0FBF1F02C
:104DD00000F00700044308E0322000EB09106421D2
:104DE000B0FBF1F000F00F0004432C8106B0BDE8E9
:104DF000F08700000038014001468888C0F30800B1
:104E00007047C1F3080282807047000010B5374830
:104E10000068782814DD35480068962810DA344890
:104E2000007868B1012033490860322001F0B0F801
:104E300000203149C1F8980101203049C87002E0D2
:104E400000202E49C8702E48007890B12C48007878
:104E5000012802D0022808D103E00120FEF760FFFC
:104E600003E00220FEF75CFF00BF00BF00202449E2
:104E700008702248807B022807D02048407B022807
:104E800003D01E48C07B022806D11A480068C043E0
:104E90001949C1F8980102E0002016490860174836
:104EA000407B20B10F211748FFF701FE03E01921D5
:104EB0001448FFF7FCFD1148807B20B10F211148F9
:104EC000FFF7F7FD03E019210E48FFF7F2FD0B484D
:104ED000C07B20B10F210B48FFF7EFFD03E0192144
:104EE0000848FFF7EAFD012010BD00000C0000207B
:104EF000080000209881214200802142685400204F
:104F00004C5400200004004000B58FB04C4880781D
:104F100001285AD14B48006800281DDD4948006827
:104F2000962819DA48480078B0B1464847A1026887
:104F300002A800F01BFA02AA00210846FEF7ECFACC
:104F4000464847A1026802A800F010FA02AA02210E
:104F50000020FEF7E1FA13E000223CA102A800F0D5
:104F600005FA02AA00210846FEF7D6FA00223CA163
:104F700002A800F0FBF902AA02210020FEF7CCFAF9
:104F80002F48007B642804DD39A102A800F0EEF967
:104F900006E02B48437B027B39A102A800F0E6F92A
:104FA00002AA04210020FEF7B7FA3A48807900905F
:104FB00038484379027938A102A800F0D7F902AA4B
:104FC00006210020FEF7A8FA36E01D488078002868
:104FD00032D137484378027836A102A800F0C6F9EA
:104FE00002AA00210846FEF797FA3848437802786B
:104FF00037A102A800F0BAF902AA02210020FEF7A8
:105000008BFA39484378027838A102A800F0AEF94B
:1050100002AA04210020FEF77FFA1E488079009042
:105020001C48437902791CA102A800F09FF902AA4A
:1050300006210020FEF770FA01200FB000BD00002D
:105040004C5400200C0000200800002048656172CC
:1050500074203A20253033642020200004000020F2
:10506000426C6F6F64203A2025303364202020008A
:1050700054656D7020203A204572726F72202000B6
:1050800054656D7020203A20253032642E25303250
:1050900064200000600A002054696D653A202530C4
:1050A00032643A253032643A253032640000000020
:1050B000080A0020416C61726D313A202530327847
:1050C0003A25303278202020000000000A0A002013
:1050D000416C61726D323A20253032783A25303297
:1050E00078202020000000000C0A0020416C617232
:1050F0006D333A20253032783A253032782020201E
:105100000000000000BFFEE710B586B00446012194
:1051100044F20400FEF70CFB4FF40070ADF81400ED
:1051200003208DF8160018208DF8170005A91C48DB
:10513000FCF7B9FD4FF48060ADF8140004208DF841
:10514000170005A91648FCF7AEFD25208DF80000D4
:1051500003208DF801008DF8020001208DF8030076
:105160006846FEF743F801940020ADF80800ADF85A
:105170000A00ADF80C00ADF810000C20ADF80E00E0
:1051800001A90848FFF7CCFD012240F2255105484E
:10519000FFF7A0FD01210348FFF759FD06B010BD40
:1051A000000801400038014010B586B004460121D6
:1051B0000820FEF7BDFA01218804FEF799FA1820AD
:1051C0008DF817004FF48060ADF8140003208DF8BF
:1051D000160005A91D48FCF766FD04208DF8170090
:1051E0004002ADF8140003208DF8160005A91748F9
:1051F000FCF759FD01940020ADF810000C20ADF82B
:105200000E000020ADF80C00ADF80A00ADF8080063
:1052100001A90F48FFF784FD01210D48FFF717FD95
:10522000012240F225510A48FFF754FD27208DF84E
:10523000000001208DF803008DF801008DF80200B8
:105240006846FDF7D3FF06B010BD0000000C01401A
:105250000048004070B504460D4600260DE014F8E5
:10526000011B0748FFF7CDFD00BF40210448FFF7B1
:10527000FAFC0028F9D0701C86B2AE42EFDB70BD9C
:105280000048004070B504460D4629462046FFF709
:10529000B8FD00BF80212046FFF7E5FC0028F9D0CB
:1052A00070BD000010B50446012C02D0022C39D18B
:1052B0001BE001221C491D480068FEF7AFFF0122D8
:1052C0001949491C1A480068FEF7A8FF012216492F
:1052D000091F18480068FEF7A1FF01221249C91EE4
:1052E00015480068FEF79AFF1CE001220E49891C50
:1052F00012480068FEF792FF01220B49C91C1048B2
:105300000068FEF78BFF01220749891E0D480068DF
:10531000FEF784FF01220449491E0B480068FEF78E
:105320007DFF00BF00BF10BD71540020BC090020EC
:10533000C0090020C4090020C8090020CC090020B1
:10534000D0090020D4090020D80900200FB4054B53
:1053500010B503A9044A029800F04CF910BC5DF89E
:1053600014FB0000816000081C0A00200FB4084BE9
:1053700010B504A902AA039800F03CF9044602A95A
:10538000002000F0CEFC204610BC5DF814FB0000AD
:10539000235D000830B528B1144C031F002021689C
:1053A0000A4605E0084630BD9A4203D810465268C6
:1053B000002AF9D1002800D041680BD00468A3EB83
:1053C0000005A54204D11B681C440346046002E0AA
:1053D000436000E023603AB11C68D51AA54203D1AE
:1053E00015682C441C6052685A6030BD840A002045
:1053F0002DE9F04782460F4C10480D4E0E4F001B12
:105400004FF0000820F007054FF001090022114677
:10541000504600F085FF002802D1306810B100200E
:10542000BDE8F0873C60C4E90058C6F80090EDE79D
:10543000880A00207C540020840A00207860002024
:1054400002E008C8121F08C1002AFAD1704770474D
:10545000002001E001C1121F002AFBD170470000AB
:105460002DE9FF5F82B00021DDE90430020DDDF897
:1054700040B0034318D044F61050A2F2FF3242432A
:105480001514119801281FD0A5EB0B00401C5FEAF2
:10549000000A4FF000064E4FDFF83891B0465046F4
:1054A00015D5CAF1000413E0119801244AA301287C
:1054B00001D16FEA0B010298119AC0E90031C0E9ED
:1054C000024206B0BDE8F09FCBF10000DFE70446E2
:1054D0000021404A491842EB0450CDE9001012E087
:1054E000E00707D032463B4640464946FBF78DF978
:1054F0008046894632463B4610461946FBF785F9F9
:1055000006460F466410002CEAD1DDE90401DDE90E
:105510000023BAF1000F06DAFBF777F942464B4653
:10552000FBF773F905E0FBF7C9FB42464B46FBF777
:10553000C5FB04460E460022284BFBF72DFA03D884
:105540004FF0FF30014607E00022254B2046314650
:10555000FBF7B4F8FBF72DFC102409E0002C0ADB64
:105560000A220023FBF746FA039B30321A55641EC9
:1055700050EA0102F2D1641C039AC4F111031444ED
:10558000119A012A03D0012208430DD10AE00843F1
:1055900004D000204FF0110B119072E7A3EB0B0524
:1055A0006D1E0DE05B4504DD4FF0000205F10105C5
:1055B00004E003DA4FF00002A5F10105002AECD067
:1055C00002981199C0E90231C0E9004579E700006D
:1055D000000014400000F03F300000000000F043E5
:1055E0000000E03F30380A2801D201207047002037
:1055F000704700002DE9FF4F95B09B46894606464F
:1056000000250FE2252877D100242746F84A0121FA
:10561000059400E0044316F8013F203B01FA03F033
:105620001042F7D130782A2811D06FF02F0330784C
:10563000A0F13002092A16D8059A44F0020402EBC0
:10564000820203EB42021044761C0590EFE759F802
:10565000042B0592002A03DA504244F400540590CA
:1056600044F00204761C30782E2816D116F8010F6B
:1056700044F004042A280DD06FF02F023078A0F1F6
:105680003003092B09D807EB870302EB4303C71844
:10569000761CF3E759F8047B761C30786C280FD021
:1056A00006DC4C2817D068280DD06A2814D104E0F5
:1056B000742810D07A280FD10DE044F400140AE0C9
:1056C00044F4801401E044F440147278824202D120
:1056D00004F58014761C761C307866280BD013DC19
:1056E000582877D009DC002875D04528F6D0462800
:1056F000F4D047281AD19DE118E0632835D06428FA
:1057000079D0652812D195E1702873D008DC67281C
:10571000F1D069286FD06E280DD06F2806D1B5E082
:1057200073282CD0752875D0782874D05A461799CC
:1057300090476D1C75E1C4F30250022809D003287C
:105740000DD0D9F8001004280DD00D6009F104091E
:1057500067E1D9F80010EA17C1E90052F6E7D9F875
:1057600000100D80F2E70D70F0E719F8041B8DF8BA
:10577000001000208DF80100EA46012003E059F8EE
:1057800004AB4FF0FF3061074FF0000102D40DE091
:1057900008F101018846B9420FDA8045F8DB1AF8B2
:1057A00008100029F4D108E008F10101884681427F
:1057B000FADB1AF808100029F6D105985B46A0EB31
:1057C000080721463846179A00F094FA284400EB5F
:1057D000080507E04DE029E10DE01AF8010B5A46F3
:1057E00017999047B8F10108F7D25B462146384631
:1057F000179A13E142E00A220092C4F302524FF0DA
:10580000000A022A08D059F804CB032A4FEAEC71A7
:105810000AD00DE029E02AE009F1070121F0070292
:10582000F2E802C1914609E00FFA8CFC4FEAEC71F4
:10583000042A03D14FFA8CFC4FEAEC71002907DAF5
:105840000A460021DCF1000C61EB02012D2202E08E
:10585000220504D52B228DF80420012203E0E20763
:1058600001D02022F7E7904659E00A2102E01022F9
:105870000DE010214FF0000A00910BE010224FF0D4
:10588000000A44F004040827009203E008224FF0C5
:10589000000A0092C4F30252022A05D059F804CB40
:1058A0000021032A08D009E009F1070121F00702CD
:1058B000F2E802C1914605E01FFA8CFC042A01D1EE
:1058C0000CF0FF0C4FF00008220728D5702806D0F6
:1058D000009B83F0100353EA0A0305D00EE0402238
:1058E0008DF80420012208E05CEA010206D0302293
:1058F0008DF804208DF8050002229046009B83F06D
:10590000080353EA0A030AD15CEA010201D16207E3
:1059100005D530228DF804204FF001087F1E58284D
:1059200004D034A003900EA802900DE036A0F9E751
:1059300053466046009AFBF75DF884460398825C04
:105940000298401E029002705CEA0100F0D10298B9
:1059500006A9081A00F1200A600702D524F4803451
:1059600000E00127574502DDA7EB0A0000E0002018
:1059700000EB0A01009005984144401A0590E003AD
:1059800006D45B462146179A059800F0B3F9054402
:10599000002706E001A85A46C05D179990476D1C84
:1059A0007F1C4745F6DBE0030CD55B462146179A82
:1059B000059800F09FF9054404E030205A461799F5
:1059C00090476D1C0099481E00900029F5DC08E006
:1059D000029802995A460078491C029117999047FB
:1059E0006D1CBAF10001AAF1010AF1DC65E10000C9
:1059F00009280100303132333435363738396162A5
:105A00006364656600000000303132333435363768
:105A100038394142434445460000000000F058F93F
:105A20000544761C307800287FF4ECAD19B0284688
:105A3000BDE8F08F620700D4062709F1070222F0C3
:105A4000070CFCE80223E14603F000485FEA080C7B
:105A500002D00FF2702C0DE05FEA045C02D50FF269
:105A6000682C07E05FEAC47C02D00FF2602C01E0F2
:105A7000AFF2700C4FF0FF3823F00043CDF850C068
:105A800065280CD006DC452809D046281DD04728BB
:105A90003DD13DE0662818D067287ED138E000214E
:105AA000112F01DB112000E0781CCDE9000106A9CF
:105AB0000EA8FFF7D5FCDDE90F010E9A0391002136
:105AC000009207F1010A04914DE04FF00040009769
:105AD000CDE9011006A90EA8FFF7C2FCDDE90F020F
